:100000006F00604700000000320100003401000072
:1000100000000000000000000000000000000000E0
:1000200000000000000000000000000000000000D0
:1000300074040000000000007404000000000000D0
:1000400074040000740400007404000074040000D0
:1000500074040000740400007404000074040000C0
:1000600074040000740400007404000074040000B0
:1000700074040000740400007404000074040000A0
:100080007404000074040000740400007402000092
:1000900074040000740400007404000000000000F8
:1000A000511126C022C206C4828282441244A24058
:1000B00031018280634E050263C305042E86AA8542
:1000C0007D5515C285466378B6006356C0000606A6
:1000D0008606E36CB6FE014563E4C500918D558D3F
:1000E00085820582F5FA82808682C93F2E858282CA
:1000F0003305A04063D70500B305B040C1B7B305D1
:10010000B0408682653F3305A0408282868263C705
:100110000500634905005D372E858282B305B04036
:10012000E35B05FE3305A040513F3305B0408282BA
:10013000000001A0B707EFBE37E700E0938707088C
:100140003CC701A0EFF2DFF551118545414502C0E2
:1001500002C202C4C9219307900F7C80C1473EC4EC
:100160008A858D47371501403EC2652EB71701407D
:100170001307900FD8CB31010DBF93771500A1CF96
:10018000B7170140054798CB93772500B1CBB71738
:100190000140214798CB93774500A1CBB717014089
:1001A000414798CB93778500B1C7B7170140130734
:1001B000000298CB93770501A1C7B7170140130739
:1001C000000498CB13750502B71701401307000808
:1001D00015CD98CB8280B71701400547D8CB6DB7B6
:1001E000B71701402147D8CB7DB7B717014041472A
:1001F000D8CB4DBFB717014013070002D8CB5DBF66
:10020000B717014013070004D8CB6DBFD8CB82804D
:10021000EFF21FE905653111854513050580373477
:10022000014002C402C62318010002C002C2E52632
:10023000930760172C00130504C03EC602C42308B0
:100240000100CD2E8545130504C08D219307300292
:100250007C800A8585473EC2230101008926054628
:10026000130504C0854515298545130504C01129CA
:10027000510125BD711122C037040020930784016C
:100280009A239307806EBA9788239307F003130489
:10029000840163F4A7001305F0031375F50FF13D16
:1002A0001E201307F0038507C207C1831EA01E206E
:1002B0006374F700231004003735014085451305AA
:1002C00005C0ED260244110173002030EFF25FDD1E
:1002D000352ADD26853D2D3F01A0EFF27FDC371466
:1002E00002401C403707FFF8611193E717001CC05C
:1002F0005C404145F98F5CC01C403707F7FE7D1715
:10030000F98F1CC01C403707FCFF7D17F98F1CC0FC
:100310005C4041777D17F98F5CC0B7079F001CC414
:10032000D5241C4C3706020093E707021CCCB717F4
:10033000014003A70740938607401377F7F023A0F7
:10034000E74003A707401367070823A0E740894752
:100350009CCA02C002C21C4C37070140A16693E749
:1003600017001CCC5C43D58F5CC31C404167B7169B
:100370000240D98F1CC009679C42F18F3EC2824760
:1003800085073EC0924781E78247E397E7FEB717AC
:1003900002409C431397E7006358070685473EC217
:1003A000124785476310F706B72702409843C17686
:1003B000FD16719B98C398431367170098C3B7172E
:1003C0000240D843D8C3D843758FD8C3D843C16639
:1003D000558FD8C39843B7060001558F98C39843EB
:1003E00093166700E3DD06FED843B7160240719B03
:1003F000D8C3D84313672700D8C32147DC42B18B49
:10040000E39EE7FE210155B102C259BFEFF25FC979
:10041000371702405C43370400209146B18B130428
:1004200004016385D700A1466380D704B7376E0106
:10043000938707601CC0B7160240DC4208409183D6
:1004400013F7F700B707002093870700BA978C23AC
:10045000DC4293F5F50F93F707083357B50099E39E
:10046000B1392A8718C091B15C43B777DC02938712
:1004700007C0C9B701A0970100209381213A1381D9
:1004800081FE1305000A970500209385A5B717067E
:100490000020130626B763FAC5008322050023A0B7
:1004A000550011059105E3EAC5FE13058072970515
:1004B0000020938525B517060020130626B663FA9B
:1004C000C5008322050023A0550011059105E3EA2C
:1004D000C5FE17050020130565B49385C1806377B9
:1004E000B500232005001105E36DB5FEB72200001D
:1004F00093820288739002308D42739042809702FB
:100500000000938222B093E2320073905230EFF0F9
:10051000DFDC970200009382A2DB73901234730039
:100520002030944593F7060193F2F60081C7DC4131
:10053000B3E2F20083D3050093F7F30FA5C30323BF
:100540000500611122C226C0814713048002930472
:10055000800405473316F70033F7C3006312E60241
:10056000939527003D473317B7001347F7FF3373C1
:100570006700B395B20033E36500639D860050C900
:1005800085072147E397E7FC124423206500824456
:1005900021018280E39696FE10C9DDB78280B707FD
:1005A000002083A6C701854718216390F6021C31FD
:1005B000639CD7023C219A0793E707F8B7E600E06F
:1005C00093F7F70FBA962380F64085469357570066
:1005D0003397E600544189CE938707048A07B7E62C
:1005E00000E0B69798C38280EDF33C219A07F9B7F3
:1005F00093870706B7E600E08A07B69798C30F10FF
:1006000000008280371702401C430E0593F777F0F5
:100610005D8D08C3828099C5371702401C4F5D8DE0
:1006200008CF8280B7170240984F1345F5FF798DA8
:1006300088CF82801E2137370140130707C0C207C9
:10064000C1836306E500370700406316E500BA2161
:1006500093F7F7F8D98FFA2193F7F7CFC207C18341
:10066000D98F1EA1DE215EB59E211EB5B737014090
:10067000938707C06314F5009C251EB985475EA9C2
:1006800082801E2189C593E717001EA18280C207C0
:10069000C183F99BC207C183CDBF5E2501C6DD8D35
:1006A0004EA5828093C5F5FFFD8DDDBF93C5F5FF97
:1006B000C205C1810EA98280EFF29F9EB70700207C
:1006C00003A50701B7157A0093850520C53A137570
:1006D000F50F2385A18093175500898F8A073E95D2
:1006E0000E052394A180D1B2202326292C2F323449
:1006F00037393B3D3E3F404040403F3E3D3B393730
:1007000034322F2C292623201D1A1714110E0B0802
:1007100005030100000000000000000001030508BF
:080720000B0E1114171A1D2025
:100728000102030405060708010203040506070879
:08073800006CDC02000000006F
:00000001FF
