:100000006F00102B000000004A0100004C010000AE
:1000100000000000000000000000000000000000E0
:1000200000000000000000000000000000000000D0
:10003000AE0A000000000000AE0A00000000000050
:10004000AE0A0000AE0A0000AE0A0000AE0A0000D0
:10005000AE0A0000AE0A0000AE0A0000AE0A0000C0
:10006000AE0A0000AE0A0000AE0A0000AE0A0000B0
:10007000AE0A0000AE0A0000AE0A0000AE0A0000A0
:10008000AE0A0000AE0A0000AE0A00008E070000B3
:10009000AE0A0000AE0A0000AE0A00000000000038
:1000A000511126C022C206C4828282441244A24058
:1000B000310182802A86014593F6150091C232955E
:1000C00085810606F5F9828000000000634E050276
:1000D00063C305042E86AA857D5515C285466378BF
:1000E000B6006356C00006068606E36CB6FE014500
:1000F00063E4C500918D558D85820582F5FA828075
:100100008682C93F2E8582823305A04063D70500D1
:10011000B305B040C1B7B305B0408682653F330533
:10012000A0408282868263C70500634905005D376F
:100130002E858282B305B040E35B05FE3305A04007
:10014000513F3305B0408282000001A0B707EFBEE7
:1001500037E700E0938707083CC701A0EFF25FF4A0
:100160003704070013044408B7540040A2851385E0
:100170000440EF00F03A6DD9854513850440EF0047
:10018000303725B7EFF2DFF151118545414502C007
:1001900002C202C4EF00104F9307900F7C80C1474A
:1001A0003EC48A858D47371501403EC2EF00501B83
:1001B000B71701401307900FD8CB3101FDB5EFF20F
:1001C0003FEE11118545454502C002C202C402C678
:1001D00002C802CA02CCEF00F04A8545370520006C
:1001E000EF00304C9147F1440D448A8537150140AA
:1001F0007C8026C422C2EF00B01689478A85371555
:1002000001407C8026C422C2EF009015B72706006B
:10021000938707A8375400403EC6B707FFBF3EC8C4
:100220006C00916713050440FC8402CAEF00101BA8
:10023000854513050440EF0090287101BDB5EFF22C
:100240003FE637540040AA84930704403E85B70533
:100250000200EF00502EB7570040938707407DF50E
:1002600013050440854537040300EF00D02605043C
:10027000B757004013850740A285EF00702AB75793
:1002800000407DD50146930580071385074037045C
:100290000700EF00D02713042408B7570040138548
:1002A0000740A285EF00D027B75700407DD5814594
:1002B0001385074037040700EF0030251304440876
:1002C000B757004013850740A285EF007025B75748
:1002D00000407DD5A68513850740EF001023BD3D66
:1002E000E9B3EFF2FFDB37540040AA8493070440E0
:1002F0003E85B7050200EF001024B75700409387F2
:1003000007407DF513050440854537040300EF00E1
:10031000901C0504B757004013850740A285EF00E5
:100320003020B75700407DD50146930580071385DF
:10033000074037040700EF00901D13042408B75747
:10034000004013850740A285EF00901DB75700407D
:100350007DD5930500041385074037040700EF009F
:10036000D01A13044408B757004013850740A285EC
:10037000EF00101BB75700407DD5A68513850740B9
:10038000EF00B018E13B15B393771500A1CFB71775
:100390000140054798CB93772500B1CBB7170140B3
:1003A000214798CB93774500A1CBB7170140414730
:1003B00098CB93778500B1C7B717014013070002A8
:1003C00098CB93770501A1C7B71701401307000425
:1003D00098CB13750502B71701401307000815CD18
:1003E00098CB8280B71701400547D8CB6DB7B717B8
:1003F00001402147D8CB7DB7B71701404147D8CB43
:100400004DBFB717014013070002D8CB5DBFB71728
:10041000014013070004D8CB6DBFD8CB8280EFF228
:100420003FC80565311185451305058002C402C624
:100430002318010002C002C2EF00D024373401406B
:10044000DD473EC42C009307703E130504C03EC632
:1004500023080100EF00D0268545130504C0EF00F6
:10046000B02D930730027C800A8585473EC2230168
:100470000100EF00D00F0546130504C08545EF00CD
:10048000902A8545130504C0EF007028510131B949
:10049000EFF21FC11304000B22855533014545338C
:1004A0004145713B930400080145FD141D3DEDFCE1
:1004B00005041374F40F9307800BE31FF4FCF5B6E7
:1004C000EFF21FBE13054006EF00102B1305E00AE4
:1004D000BD331305500DA533130500088D331305E7
:1004E000800AB13B1305F003993B1305300D813BA6
:1004F0000145B1331305000499331305D008813346
:100500005145353B130500021D3B09450D3B1305C5
:10051000100A35331305800C1D331305A00D053368
:100520004945313B13051008193B1305F00C013BFD
:100530001305900D29331305100F11331305B00D5A
:10054000FD3913050003E5391305400ACD391305BC
:10055000600AF5311305F00ADD311D3FB9B6EFF23F
:100560003FB401169377F60F51113EC09307000870
:10057000958F2A8463D6A700850593F5F50F01446E
:10058000938705FB9354440013F5F70FC14793E499
:1005900004013D88639BF6042EC255312685453102
:1005A0002285713982479245139647009386C18010
:1005B00081473307F600369708232EC43EC232C067
:1005C0000D339247214785079386C1800246A24595
:1005D000E391E7FE938515FB13F5F50F8D31268525
:1005E000B9392285A9393101C9B4A147639BF60203
:1005F000B9312685A931228599318247B704002077
:1006000001441396370093840400B307C400A697EF
:10061000882332C00504F131A1470246E317F4FEF6
:10062000D9B73139268521392285113982473707D3
:1006300000208144139417003E94060413074734A6
:10064000B3878400BA97882385046139370700206F
:10065000994713074734E395F4FE71B7EFF25FA4AF
:1006600061112A84AE84B2873687902319E2210172
:100670002DBCBA862285A6853EC23AC0CD3502473A
:100680009306000892473A941374F40F63F68600B9
:10069000890493F4F40F01448507C1BFEFF25FA012
:1006A0000545D925792EEF00F009E93C093E093DC1
:1006B00037160000A1461306C6FB81450145793F68
:1006C00037160000A1461306C6FC89450145793757
:1006D00037160000A146130686FD91450145BD3F32
:1006E00037160000A146130646FE99450145BD3761
:1006F0003D3301A0EFF2DF9A2111FD162A842EC4AA
:1007000032C693F4F60F02C002C236C89307F00F48
:100710006391F40661016FF05F9913962500B2951D
:100720008605FD1793F7F70FE399D7FE32453ACACE
:10073000EFF05F9AA945EFF0BF9C92471376F50F53
:1007400052479DEFC247824663DCF60205E9BA864E
:1007500013060002A24522851935824752478507B4
:100760003EC03A949387F4FF1374F40F93F4F70F99
:1007700071BFA68785459306F00F65B785473EC2D2
:1007800013060603BA863ACA1376F60FE1B761116B
:1007900022C23704002026C0930714309C2393F70D
:1007A000F70F638F0714B704002093870434942352
:1007B0009387E18192238567938707FFBE968822FE
:1007C000B2978C23011513041430EFF0BF8E9357AA
:1007D000F54193F7F703AA97998793870702C20712
:1007E000C1839306F0033E859384043463F4F600DA
:1007F0001305F0031375F50F413E1387E1811E23A6
:100800009306F0038507C207C1831EA31E2363F46A
:10081000F6002310070037070020130717341C23A6
:10082000E146850793F7F70F63E8F6081CA3938763
:1008300001829A239306703E0507420741839AA3DB
:100840009A2363FFE60A1387C181239007001C23C4
:100850001306F00F9384C181FD1793F7F70F1CA3C4
:100860001423B70700209387073093F6F60F63949D
:10087000C6061306B00310A398237D171377F70F4E
:1008800098A398236399E604373501408145130501
:1008900005C023000400A52D0145FD3437160000D6
:1008A000A146130646FB994513050004453B124437
:1008B00082442101730020309C202300070013078D
:1008C000F003850793F7F70F9CA09C20E371F7F6E0
:1008D00023800400A9BF9023214789469945130529
:1008E0000004093DA1461306A00399451305000520
:1008F000BD31902021478946994513058005DD3B90
:10090000373501408545130505C03D254DB7EFF24C
:100910002FF9371402401C403707FFF8611193E7A5
:1009200017001CC05C404145F98F5CC01C40370774
:10093000F7FE7D17F98F1CC01C403707FCFF7D17A1
:10094000F98F1CC05C4041777D17F98F5CC0B707F9
:100950009F001CC4B5291C4C3706020093E7070210
:100960001CCCB717014003A70740938607401377B5
:10097000F7F023A0E74003A707401367070823A069
:10098000E74089479CCA02C002C21C4C370701409D
:10099000A16693E717001CCC5C43D58F5CC31C4059
:1009A0004167B7160240D98F1CC009679C42F18F7E
:1009B0003EC2824785073EC0924781E78247E39760
:1009C000E7FEB71702409C431397E70063590706F9
:1009D00085473EC2124785476310F706B727024096
:1009E0009843C176FD16719B98C39843136717000F
:1009F00098C3B7170240D843D8C3D843758FD8C31C
:100A0000D843C166558FD8C39843B7060001558FA8
:100A100098C3984393166700E3DD06FED843B716E4
:100A20000240719BD8C3D84313672700D8C321471E
:100A3000DC42B18BE39EE7FE21016FF00FE702C2BB
:100A400051BFEFF2EFE5371702405C433704002057
:100A50009146B18B130444316385D700A14663826C
:100A6000D704B7376E01938707601CC0B7160240E2
:100A7000DC420840918313F7F700B7070020938703
:100A80004730BA978C23DC4293F5F50F93F70708AC
:100A90003357B50081E7EFF0EFE32A8718C06FF016
:100AA000CFE05C43B777DC02938707C07DBF01A02E
:100AB0009701002093810109138101CC1305000ADD
:100AC00097F5FF1F9385055417F6FF1F13068653EE
:100AD00063FAC5008322050023A055001105910586
:100AE000E3EAC5FE170500001305C55497F5FF1F7F
:100AF00093854551170600201306C68463FAC50086
:100B00008322050023A0550011059105E3EAC5FEE7
:100B100017050020130505839385C1826377B5000F
:100B2000232005001105E36DB5FEB7220000938276
:100B30000288739002308D427390428097F2FFFFDB
:100B40009382424C93E2320073905230EFF03FDCDC
:100B5000970200009382C2B4739012347300203065
:100B6000944593F7060193F2F60081C7DC41B3E2A6
:100B7000F20083D3050093F7F30FA5C30323050009
:100B8000611122C226C081471304800293048004AD
:100B900005473316F70033F7C3006312E602939557
:100BA00027003D473317B7001347F7FF337367003C
:100BB000B395B20033E36500639D860050C9850795
:100BC0002147E397E7FC124423206500824421017A
:100BD0008280E39696FE10C9DDB78280EFF24FCC9B
:100BE000111146212A8428002EC0E52AC246C204DB
:100BF000C18093F404FCB7450F0093850524368526
:100C0000C20436C2C180EFF0EFCC458D4205418170
:100C10004AA01E209246C207C183F99BC207C18326
:100C20001EA082479043E1679387076A93151600D9
:100C300063E6C7043685EFF0EFC9AA874205418114
:100C400091466373D50091471395070141814AACE2
:100C50001E20024793E717001EA01E2056233227AE
:100C6000C207C183D18E93F757BFD58F1EA0162719
:100C70005E27D58F1EA471016FF02FC38247EA2330
:100C8000B167FD176310F502B2953685EFF08FC49A
:100C9000420541819317450199E313651500A1674A
:100CA0005D8D75B7B387C5008E07B385C7003685E0
:100CB000EFF04FC24205418191675D8DE1BF1E217A
:100CC00089C593E717001EA18280C207C183F99BE3
:100CD000C207C183CDBF1E2189C593E707101EA19E
:100CE0008280C207C18393F7F7EFC207C183C5BFF4
:100CF0001E2189C593E707201EA18280C207C183F8
:100D000093F7F7DFC207C183C5BF0EA9828093F7AF
:100D1000E50F19C293E71500C207C1831EA982809F
:100D20005E290A2D42055D8D6D8D220521810D8D77
:100D3000133515008280611102C002C293D7C5012C
:100D40002AC23EC08247A205A18199CB9247D10712
:100D50003EC29247884321016D8D3335A0008280C9
:100D60009247C181E107EDB723A2A182828083A6C9
:100D70004182854718216390F6021C31639CD7029B
:100D80003C219A0793E707F8B7E600E093F7F70FDF
:100D9000BA962380F6408546935757003397E6006E
:100DA000544189CE938707048A07B7E600E0B697D7
:100DB00098C38280EDF33C219A07F9B79387070621
:100DC000B7E600E08A07B69798C30F10000082804C
:100DD000371702401C430E0593F777F05D8D08C36B
:100DE0008280EFF2EFAB371702405C4391462A84D2
:100DF000B18B6385D700A1466380D708B7376E01F2
:100E0000938707601CC0B7160240DC42918313F73A
:100E1000F700B70700209387C732BA978C23DC42CC
:100E2000184093F5F50F93F707083355B70081E79E
:100E30003A85EFF02FAA48C008C448C4B71702404B
:100E4000DC438D46AD83FD8B13D737008A07F18BCA
:100E5000D98F13F6370113F7370063F4C6001387F1
:100E600047FFB707002093878731BA978C23EFF0AD
:100E70006FA608C86FF06FA35C43B777DC02938757
:100E800007C049B799C5371702401C4F5D8D08CF81
:100E90008280B7170240984F1345F5FF798D88CFB0
:100EA000828099C5371702405C4F5D8D48CF8280A4
:100EB000B7170240D84F1345F5FF798DC8CF828010
:100EC0001E2137370140130707C0C207C1836306DD
:100ED000E500370700406316E500BA2193F7F7F8FD
:100EE000D98FFA2193F7F7CFC207C183D98F1EA1FB
:100EF000DE215EB59E211EB5B7370140938707C03E
:100F00006314F5009C251EB985475EA982801E21C9
:100F100089C593E717001EA18280C207C183F99B90
:100F2000C207C183CDBF5E2501C6DD8D4EA582807F
:100F300093C5F5FFFD8DDDBF93C5F5FFC205C181EA
:100F40000EA98280EFF2CF95B707002003A54731A5
:100F5000B7157A0093850520EFF0CF971375F50F3D
:100F60002385A18293175500898F8A073E950E0528
:100F70002394A1826FF06F93EFF28F9237F400E029
:100F80005C40AA85F99B5CC003D58182EFF08F920B
:100F900008C8232404001C4093E717001CC0B7F7BF
:100FA00000E0D843058B75DF9843799B98C36FF0B9
:100FB000CF8F00002030303A303000003430487A93
:100FC00020414D2057617665000000004672657132
:100FD0003A316B487A0000004D6F643A3430487AF9
:100FE00000000000436F756E74646F776E3A000006
:100FF000202326292C2F323437393B3D3E3F3F3FBB
:101000003F3F3F3E3D3B393734322F2C29262320AA
:101010001D1A1714110E0B08050301000000000033
:1010200000000000010305080B0E1114171A1D2003
:10103000000000000000000000005F000000000051
:101040000007000700000000147F147F1400000058
:10105000242A7F2A12000000231308646200000083
:101060003649552250000000000007000000000033
:10107000001C2241000000000041221C0000000072
:1010800014083E081400000008083E08080000008C
:1010900000503000000000000808080808000000A8
:1010A0000060600000000000201008040200000042
:1010B0003E5149453E000000427F400000000000D4
:1010C00042615149460000002141454B310000007A
:1010D0001814127F10000000274545453900000014
:1010E0003C4A494930000000017109050300000035
:1010F0003649494936000000064949291E000000CA
:1011000000363600000000000056360000000000E7
:10111000081422410000000024242424240000009C
:1011200000412214080000000201510906000000DD
:10113000324979413E0000007E0909097E00000025
:101140007F494949360000003E41414122000000EC
:101150007F4141221C0000007F49494941000000B5
:101160007F090909010000003E4149497A00000059
:101170007F0808087F00000000417F410000000058
:101180002040403F000000007F0814224100000082
:101190007F404040400000007F020C027F000000C2
:1011A0007F0408107F0000003E4141413E000000E6
:1011B0007F090909060000003E4151613E00000020
:1011C0007F091929460000002649494932000000DC
:1011D00001017F01010000003F4040403F0000004E
:1011E0001F2040201F0000007F2018207F000000EB
:1011F0006314081463000000030478040300000073
:101200006151494543000000007F4141000000005A
:10121000020408102040800000000041417F0000CF
:101220000402010204000000404040404000000071
:101230000001020400000000205454547800000013
:101240007F484444380000003844444420000000F3
:10125000384444487F0000003854545418000000BB
:10126000087E0909000000000018A4A47C0000000A
:101270007F0804047800000000447D400000000066
:101280002040443D000000007F1028440000000082
:1012900000417F40000000007C041804780000003A
:1012A0007C080404780000003844444438000000FE
:1012B000FC1824241800000018242418FC00000046
:1012C0007C08040408000000485454542400000022
:1012D000043F4444200000003C4040207C000000CB
:1012E0001C2040201C0000003C4030403C0000001E
:1012F00044281028440000000C5050503C000000CE
:101300004464544C440000000008364100000000D2
:1013100000007F00000000000041360800000000CF
:101320000804081008000000000000000000000091
:101330001E01000001020304050607080102030460
:1013400005060708006CDC020204060804080C10FD
:101350000810182010203040204060800102030453
:10136000050607080102030405060708000000003F
:00000001FF
