:100000006F001051000000004A0100004C01000088
:1000100000000000000000000000000000000000E0
:1000200000000000000000000000000000000000D0
:100030000E0D0000000000000E0D0000000000008A
:100040000E0D00000E0D00000E0D00000E0D000044
:100050000E0D00000E0D00000E0D00000E0D000034
:100060000E0D00000E0D00000E0D00000E0D000024
:100070000E0D00000E0D00000E0D00000E0D000014
:100080000E0D00000E0D00000E0D0000F209000024
:100090000E0D00000E0D00000E0D0000000000000F
:1000A000511126C022C206C4828282441244A24058
:1000B000310182802A86014593F6150091C232955E
:1000C00085810606F5F9828000000000634E050276
:1000D00063C305042E86AA857D5515C285466378BF
:1000E000B6006356C00006068606E36CB6FE014500
:1000F00063E4C500918D558D85820582F5FA828075
:100100008682C93F2E8582823305A04063D70500D1
:10011000B305B040C1B7B305B0408682653F330533
:10012000A0408282868263C70500634905005D376F
:100130002E858282B305B040E35B05FE3305A04007
:10014000513F3305B0408282000001A0B707EFBEE7
:1001500037E700E0938707083CC701A0EFF25FF4A0
:100160003704070013044408B7540040A2851385E0
:100170000440EF0050706DD9854513850440EF00B1
:10018000906C25B7EFF2DFF151118545414502C072
:1001900002C202C4EF1060049307900F7C80C14735
:1001A0003EC48A858D47371501403EC2EF0010508E
:1001B000B71701401307900FD8CB3101FDB5EFF20F
:1001C0003FEE51118545130500023714014002C06E
:1001D00002C202C4EF10600093048004C1478A8504
:1001E000130504407C8026C4EF00504C93070002A6
:1001F0008A85130504407C8026C4EF00304B9307AA
:1002000000048A85130504407C8026C4EF00104A50
:10021000310161BD93771500A1CFB71701400547A4
:1002200098CB93772500B1CBB7170140214798CBE6
:1002300093774500A1CBB7170140414798CB9377FF
:100240008500B1C7B71701401307000298CB937719
:100250000501A1C7B71701401307000498CB137518
:100260000502B71701401307000815CD98CB82800F
:10027000B71701400547D8CB6DB7B71701402147E5
:10028000D8CB7DB7B71701404147D8CB4DBFB71783
:10029000014013070002D8CB5DBFB7170140130719
:1002A0000004D8CB6DBFD8CB8280B747000803C508
:1002B00007C09307F00363F4A700130500028280D0
:1002C000EFF21FDE2A84EF00B02F37450008130538
:1002D00005C0EF00F03491476305F500EF00F02F03
:1002E000E9B39307F0039375F40F63F48700930564
:1002F000F00337450008130505C0EF00F035F9BFDE
:10030000EFF21FDA05653111854513050580373495
:10031000014002C402C62318010002C002C2EF005D
:10032000D06B930760172C00130504C03EC602C4AF
:1003300023080100EF00306E8545130504C0EF006F
:100340001075930730027C800A8585473EC22301E1
:100350000100EF0030570546130504C08545EF0046
:10036000F0718545130504C0EF00D06F510135BB16
:10037000EFF21FD311118545454502C002C202C4E8
:1003800002C602C802CA02CCEF00306585453705B7
:100390002000EF0070669147F1440D448A853715BF
:1003A00001407C8026C422C2EF00503089478A85F4
:1003B000371501407C8026C422C2EF00302FB727BA
:1003C0000600938707A8375400403EC6B707FFBF13
:1003D0003EC86C00916713050440FC8402CAEF001C
:1003E0005035854513050440EF00D042710175B9C1
:1003F000EFF21FCB37540040AA84930704403E8598
:10040000B7050200EF009048B757004093870740B8
:100410007DF513050440854537040300EF001041C6
:100420000504B757004013850740A285EF00B0448C
:10043000B75700407DD501469305800713850740D7
:1004400037040700EF00104213042408B757004098
:1004500013850740A285EF001042B75700407DD5B5
:1004600081451385074037040700EF00703F1304F0
:100470004408B757004013850740A285EF00B03FFE
:10048000B75700407DD5A68513850740EF00503D46
:10049000F13121B9EFF2DFC037540040AA8493074D
:1004A00004403E85B7050200EF00503EB7570040BC
:1004B000938707407DF51305044085453704030005
:1004C000EF00D0360504B757004013850740A285DA
:1004D000EF00703AB75700407DD50146930580077D
:1004E0001385074037040700EF00D03713042408B2
:1004F000B757004013850740A285EF00D037B757A4
:1005000000407DD59305000413850740370407009C
:10051000EF00103513044408B75700401385074017
:10052000A285EF005035B75700407DD5A6851385CD
:100530000740EF00F0321D318DBEEFF27FB6B714E9
:1005400001409305000213850440EF00F01D2A844A
:100550009305000413850440EF00101D37060020AA
:1005600083471600B7060020130616009386260060
:1005700063808702B7070020938747049A236303A9
:10058000A4020507420741839AA300A288A231BEB4
:100590009C22E38CA7FEB7070020938747049A2389
:1005A000E301A4FE7D17F9BFEFF29FAF1304000B28
:1005B00022853D3D01452D3D41451D3D93040008EB
:1005C0000145FD14C13DEDFC05041374F40F9307C0
:1005D000800BE31FF4FCD1BCEFF29FAC1305400687
:1005E000EF00F04E1305E00A21351305500D0935D3
:1005F00013050008F53B1305800ADD3B1305F003E6
:10060000C53B1305300DED330145DD331305000403
:10061000C5331305D008E93B5145D93B130500020A
:10062000C13B0945F1331305100AD9331305800C7A
:10063000C1331305A00D6D3B49455D3B1305100803
:10064000453B1305F00C6D331305900D5533130521
:10065000100F793B1305B00D613B13050003493BB7
:100660001305400A71331305600A59331305F00A64
:1006700041331D3F1DBCEFF2BFA201169377F60F69
:1006800051113EC093070008958F2A8463D6A700B6
:10069000850593F5F50F0144938705FB93544400BA
:1006A00013F5F70FC14793E404013D88639EF604F8
:1006B0002EC23D3B26852D3B22851D3B8247924520
:1006C0008566139647009386866181473307F60057
:1006D000369708232EC43EC232C06D3B92478566D2
:1006E00021478507938686610246A245E390E7FE8F
:1006F000938515FB13F5F50FE5392685D539228548
:10070000C53931016FF07F9AA147639AF602CD3166
:100710002685F9392285E939824785640144139693
:10072000370093848431B307C400A697882332C06E
:1007300005048D33A1470246E317F4FED9B74D39BE
:1007400026857D3122856D3182470567814413946A
:1007500017003E94060413070731B3878400BA9745
:1007600088238504053B0567994713070731E396FE
:10077000F4FE41BFEFF2DF9261112A84AE84B287AA
:100780003687902301E621016FF03F92BA862285D9
:10079000A6853EC23AC0C535024793060008924777
:1007A0003A941374F40F63F68600890493F4F40FFB
:1007B00001448507F9B7EFF2BF8E2111FD162A8497
:1007C0002EC432C693F4F60F02C002C236C8930795
:1007D000F00F6391F40661016FF03F8D13962500D1
:1007E000B2958605FD1793F7F70FE399D7FE3245CB
:1007F0003ACAEFF03F8EA945EFF09F9092471376EB
:10080000F50F52479DEFC247824663DCF60205E9C9
:10081000BA8613060002A2452285B13D824752479F
:1008200085073EC03A949387F4FF1374F40F93F452
:10083000F70F71BFA68785459306F00F65B785470B
:100840003EC213060603BA863ACA1376F60FE1B71C
:10085000EFF21F850545EF009006A121EF00F02380
:10086000EFF0BFA4620593841181618588A0982070
:10087000938681801377F70F98A2EFF0BF90EFF087
:100880001F94FD34913B37160000A1461306866283
:1008900081450145C53537160000A146130686631C
:1008A00089450145C13D9020214789466206618600
:1008B000894513050004013737160000A1461306C9
:1008C0004664994501457D3513848180EFF05FA32F
:1008D000AD31B7070020B706002013864704938682
:1008E00066041A228E22638CE5021A2212220D8FD0
:1008F00092A2942036976207618798A094201307EC
:10090000F003E206E186634BD70094200147E2063C
:10091000E18663C5060098206207618798A094204D
:10092000138791801023E206E186638FC60094202E
:1009300089451305000493F6F60F14A39020214770
:10094000894662066186853D94201020E206E18694
:100950001387A1806384C60216231306300685061A
:10096000C206C18216A3637DD6008820EFF05F9592
:1009700094201387A18093F6F60F14A0231007008C
:100980002945EF00D01413870181142393F6F60F45
:10099000A1D223000700370700200346070089463D
:1009A00021479945130500043935A1461306A003D4
:1009B000994513050005C1313703002013032304B3
:1009C0000346030021478946994513058005E53311
:1009D000B70700201383270403470300A546E3E974
:1009E000E6EEA14613060003994513058005613123
:1009F000C5B5511122C43704002026C29307340024
:100A00009C2393F7F70F638D0714B7040020938797
:100A1000040490239387C1808E2383C61181856748
:100A20009387C7643E960822AE978C23E206E18640
:100A3000011536C0EFF00FE88246130434009384AA
:100A40000404B685EFF00FE79357F541D207D18341
:100A5000AA97B18793870702C207C1839306F00361
:100A60003E8563F4F6001305F0031375F50FEFF000
:100A70006FFA1387C1801E239306F0038507C20710
:100A8000C1831EA31E2363F4F6002310070037075B
:100A90000020130717041C23E146850793F7F70F7F
:100AA00063E1F60A1CA39387E1809A2305074207B6
:100AB00041839AA3962341671307F79F6372D70A6E
:100AC00023900700B7070020938727049823938477
:100AD00001817D171377F70F98A3054798A09423FA
:100AE0001307F00F93F6F60F639CE6061307B003A7
:100AF00098A3B70700209387070098237D171377E3
:100B0000F70F98A39C23639DF60437350140814578
:100B1000130505C023000400EF00C0740145EFF089
:100B20006FEF37160000A14613068630994513056E
:100B3000000489312380040022449244310173006F
:100B400020309C20230007001307F003850793F74C
:100B5000F70F9CA09C20E378F7F423800400A1B752
:100B6000373501408545130505C01527F1B7EFF26C
:100B70002FD3371402401C403707FFF8611193E769
:100B800017001CC05C404145F98F5CC01C40370712
:100B9000F7FE7D17F98F1CC01C403707FCFF7D173F
:100BA000F98F1CC05C4041777D17F98F5CC0B70797
:100BB0009F001CC48D2B1C4C3706020093E70702D4
:100BC0001CCCB717014003A7074093860740137753
:100BD000F7F023A0E74003A707401367070823A007
:100BE000E74089479CCA02C002C21C4C370701403B
:100BF000A16693E717001CCC5C43D58F5CC31C40F7
:100C00004167B7160240D98F1CC009679C42F18F1B
:100C10003EC2824785073EC0924781E78247E397FD
:100C2000E7FEB71702409C431397E7006359070696
:100C300085473EC2124785476310F706B727024033
:100C40009843C176FD16719B98C3984313671700AC
:100C500098C3B7170240D843D8C3D843758FD8C3B9
:100C6000D843C166558FD8C39843B7060001558F46
:100C700098C3984393166700E3DD06FED843B71682
:100C80000240719BD8C3D84313672700D8C32147BC
:100C9000DC42B18BE39EE7FE21016FF00FC102C27F
:100CA00051BFEFF2EFBF371702405C43370400201B
:100CB0009146B18B130444016385D700A14663823A
:100CC000D704B7376E01938707601CC0B716024080
:100CD000DC420840918313F7F700B70700209387A1
:100CE0004700BA978C23DC4293F5F50F93F707087A
:100CF0003357B50081E7EFF0EFBD2A8718C06FF0DA
:100D0000CFBA5C43B777DC02938707C07DBF01A0F1
:100D100097010020938101B3138101FC1305000AA0
:100D200097F5FF1F9385052E17F6FF1F1306862DD7
:100D300063FAC5008322050023A055001105910523
:100D4000E3EAC5FE171500001305859497F5FF1F0C
:100D50009385452B17F6FF1F1306C62E63FAC500B1
:100D60008322050023A0550011059105E3EAC5FE85
:100D700017F5FF1F1305052D9385C1816377B50016
:100D8000232005001105E36DB5FEB7220000938214
:100D90000288739002308D427390428097F2FFFF79
:100DA0009382422693E2320073905230EFF03FDCA0
:100DB00097020000938202AA7390123473002030CD
:100DC000B707674537270240938737125CC3B79749
:100DD000EFCD9387B79A5CC38280372702401C4BC4
:100DE00093E707081CCB8280372702405C47054504
:100DF000858B91E748474189133515000D058280A1
:100E0000EFF20FAA2A84CD3785476318F50019E061
:100E1000154529A0D13F7D14C5BF7DD86FF0EFA83F
:100E2000EFF20FA8AA8437050B00D93F914763134F
:100E3000F502372402401C4837050B0093E72700D2
:100E40001CC844C81C4893E707041CC8553F1C48ED
:100E5000F59B1CC86FF06FA5EFF28FA46111AA84F7
:100E600009652EC002C2693F11478245631DE50234
:100E7000372402401C48096593E717001CC8939764
:100E80000501C1839EA02EC0A53F1147824563196D
:100E9000E500890426C29247C18109658EA38D377A
:100EA0001C48F99B1CC821016FF02FA0944593F7B3
:100EB000060193F2F60081C7DC41B3E2F20083D36E
:100EC000050093F7F30FA5C303230500611122C2A8
:100ED00026C081471304800293048004054733161B
:100EE000F70033F7C3006312E602939527003D47EE
:100EF0003317B7001347F7FF33736700B395B2009A
:100F000033E36500639D860050C985072147E39759
:100F1000E7FC124423206500824421018280E3968D
:100F200096FE10C9DDB7828008456D8D3335A0006F
:100F30008280EFF2EF96111146212A8428002EC0FC
:100F4000E52AC246C204C18093F404FCB7450F00F1
:100F5000938505243685C20436C2C180EFF08F9791
:100F6000458D420541814AA01E209246C207C18399
:100F7000F99BC207C1831EA082479043E167938714
:100F8000076A9315160063E6C7043685EFF08F9461
:100F9000AA874205418191466373D5009147139515
:100FA000070141814AAC1E20024793E717001EA0AB
:100FB0001E2056233227C207C183D18E93F757BF15
:100FC000D58F1EA016275E27D58F1EA471016FF046
:100FD000CF8D8247EA23B167FD176310F502B29502
:100FE0003685EFF02F8F420541819317450199E334
:100FF00013651500A1675D8D75B7B387C5008E07B2
:10100000B385C7003685EFF0EF8C420541819167CB
:101010005D8DE1BF1E2189C593E717001EA1828067
:10102000C207C183F99BC207C183CDBF1E2189C5F9
:1010300093E707101EA18280C207C18393F7F7EFE1
:10104000C207C183C5BF1E2189C593E707201EA122
:101050008280C207C18393F7F7DFC207C183C5BF90
:101060000EA9828093F7E50F19C293E71500C20716
:10107000C1831EA982805E290A2D42055D8D6D8D7A
:10108000220521810D8D133515008280611102C06A
:1010900002C293D7C5012AC23EC08247A205A181E0
:1010A00099CB9247D1073EC29247884321016D8D6B
:1010B0003335A00082809247C181E107EDB723AAB2
:1010C000A180828083A64181854718216390F60222
:1010D0001C31639CD7023C219A0793E707F8B7E6D7
:1010E00000E093F7F70FBA962380F64085469357B2
:1010F00057003397E600544189CE938707048A0747
:10110000B7E600E0B69798C38280EDF33C219A07DA
:10111000F9B793870706B7E600E08A07B69798C342
:101120000F1000008280371702401C430E0593F712
:1011300077F05D8D08C38280EFE29FF6371702409B
:101140005C4391462A84B18B6385D700A1466380B6
:10115000D708B7376E01938707601CC0B7160240E7
:10116000DC42918313F7F700B70700209387C7028B
:10117000BA978C23DC42184093F5F50F93F70708D4
:101180003355B70081E73A85EFE0DFF448C008C483
:1011900048C4B7170240DC438D46AD83FD8B13D79F
:1011A00037008A07F18BD98F13F6370113F7370011
:1011B00063F4C600138747FFB707002093878701B2
:1011C000BA978C23EFE01FF108C86FE01FEE5C4375
:1011D000B777DC02938707C049B799C53717024034
:1011E0001C4F5D8D08CF8280B7170240984F134582
:1011F000F5FF798D88CF828099C5371702405C4F03
:101200005D8D48CF8280B7170240D84F1345F5FF58
:10121000798DC8CF82801E2137370140130707C060
:10122000C207C1836306E500370700406316E50087
:10123000BA2193F7F7F8D98FFA2193F7F7CFC207BE
:10124000C183D98F1EA1DE215EB59E211EB5B737A1
:101250000140938707C06314F5009C251EB985479C
:101260005EA982801E2189C593E717001EA1828096
:10127000C207C183F99BC207C183CDBF5E2501C6EA
:10128000DD8D4EA5828093C5F5FFFD8DDDBF93C535
:10129000F5FFC205C1810EA98280EFE27FE0B707AA
:1012A000002003A54701B7157A0093850520EFE0DC
:1012B0007FE21375F50F238DA18093175500898F59
:1012C0008A073E950E05239CA1806FE01FDEEFE2AA
:1012D0003FDD37F400E05C40AA85F99B5CC003D594
:1012E0008181EFE03FDD08C8232404001C4093E720
:1012F00017001CC0B7F700E0D843058B75DF984393
:10130000799B98C36FE07FDA2030303A30300000AC
:1013100000000000000000000000000000000000CD
:1013200000005F0000000000000700070000000050
:10133000147F147F14000000242A7F2A120000006A
:101340002313086462000000364955225000000053
:101350000000070000000000001C22410000000007
:101360000041221C0000000014083E081400000088
:1013700008083E080800000000503000000000008F
:101380000808080808000000006060000000000075
:1013900020100804020000003E5149453E000000B4
:1013A000427F4000000000004261514946000000B9
:1013B0002141454B310000001814127F100000003D
:1013C00027454545390000003C4A494930000000A6
:1013D0000171090503000000364949493600000043
:1013E000064949291E0000000036360000000000B2
:1013F00000563600000000000814224100000000E2
:1014000024242424240000000041221408000000A9
:101410000201510906000000324979413E000000F6
:101420007E0909097E0000007F4949493600000015
:101430003E414141220000007F4141221C0000004A
:101440007F494949410000007F0909090100000066
:101450003E4149497A0000007F0808087F000000EB
:1014600000417F41000000002040403F000000009C
:101470007F081422410000007F40404040000000EF
:101480007F020C027F0000007F0408107F00000034
:101490003E4141413E0000007F090909060000006D
:1014A0003E4151613E0000007F09192946000000BD
:1014B000264949493200000001017F010100000076
:1014C0003F4040403F0000001F2040201F00000020
:1014D0007F2018207F0000006314081463000000C0
:1014E00003047804030000006151494543000000F3
:1014F000007F4141000000000204081020408000ED
:1015000000000041417F00000402010204000000CD
:101510004040404040000000000102040000000084
:1015200020545454780000007F48444438000000A0
:101530003844444420000000384444487F00000000
:101540003854545418000000087E090900000000B7
:101550000018A4A47C0000007F08040478000000A8
:1015600000447D40000000002040443D0000000099
:101570007F1028440000000000417F400000000070
:101580007C041804780000007C0804047800000043
:101590003844444438000000FC182424180000009B
:1015A00018242418FC0000007C0804040800000033
:1015B0004854545424000000043F444420000000D8
:1015C0003C4040207C0000001C2040201C0000000B
:1015D0003C4030403C0000004428102844000000FB
:1015E0000C5050503C0000004464544C4400000037
:1015F000000836410000000000007F0000000000ED
:10160000004136080000000008040810080000002F
:1016100000000000000000000000000000000000CA
:1016200000000000000000003430487A20414D20C6
:101630005761766500000000566F6C756D653A2045
:101640000000000054696D653A200000202326291F
:101650002C2F323437393B3D3E3F3F3F3F3F3F3EEB
:101660003D3B393734322F2C292623201D1A1714DD
:10167000110E0B080503010000000000000000002F
:0C168000010305080B0E1114171A1D20A1
:10168C001E010101010203040506070801020304FF
:10169C0005060708006CDC020204060804080C109E
:1016AC0008101820102030402040608001020304F4
:1016BC0005060708010203040506070800000000E0
:00000001FF
